{
  "_format": "hh-sol-artifact-1",
  "contractName": "DLottery",
  "sourceName": "contracts/DLottery.sol",
  "abi": [
    {
      "inputs": [
        {
          "internalType": "uint64",
          "name": "_subscriptionId",
          "type": "uint64"
        }
      ],
      "stateMutability": "nonpayable",
      "type": "constructor"
    },
    {
      "inputs": [
        {
          "internalType": "address",
          "name": "have",
          "type": "address"
        },
        {
          "internalType": "address",
          "name": "want",
          "type": "address"
        }
      ],
      "name": "OnlyCoordinatorCanFulfill",
      "type": "error"
    },
    {
      "anonymous": false,
      "inputs": [
        {
          "indexed": false,
          "internalType": "uint256",
          "name": "requestId",
          "type": "uint256"
        }
      ],
      "name": "RequestedRandomness",
      "type": "event"
    },
    {
      "anonymous": false,
      "inputs": [
        {
          "indexed": false,
          "internalType": "address",
          "name": "winner",
          "type": "address"
        }
      ],
      "name": "SelectedWinner",
      "type": "event"
    },
    {
      "inputs": [],
      "name": "TICKET_PRICE",
      "outputs": [
        {
          "internalType": "uint256",
          "name": "",
          "type": "uint256"
        }
      ],
      "stateMutability": "view",
      "type": "function"
    },
    {
      "inputs": [
        {
          "internalType": "address",
          "name": "newParticipant",
          "type": "address"
        }
      ],
      "name": "buyTicket",
      "outputs": [],
      "stateMutability": "payable",
      "type": "function"
    },
    {
      "inputs": [],
      "name": "claim",
      "outputs": [],
      "stateMutability": "nonpayable",
      "type": "function"
    },
    {
      "inputs": [],
      "name": "currentState",
      "outputs": [
        {
          "internalType": "enum DLottery.State",
          "name": "",
          "type": "uint8"
        }
      ],
      "stateMutability": "view",
      "type": "function"
    },
    {
      "inputs": [],
      "name": "endTime",
      "outputs": [
        {
          "internalType": "uint256",
          "name": "",
          "type": "uint256"
        }
      ],
      "stateMutability": "view",
      "type": "function"
    },
    {
      "inputs": [],
      "name": "getParticipants",
      "outputs": [
        {
          "internalType": "uint256",
          "name": "",
          "type": "uint256"
        }
      ],
      "stateMutability": "view",
      "type": "function"
    },
    {
      "inputs": [],
      "name": "isStarted",
      "outputs": [
        {
          "internalType": "bool",
          "name": "",
          "type": "bool"
        }
      ],
      "stateMutability": "view",
      "type": "function"
    },
    {
      "inputs": [],
      "name": "owner",
      "outputs": [
        {
          "internalType": "address",
          "name": "",
          "type": "address"
        }
      ],
      "stateMutability": "view",
      "type": "function"
    },
    {
      "inputs": [
        {
          "internalType": "uint256",
          "name": "",
          "type": "uint256"
        }
      ],
      "name": "participants",
      "outputs": [
        {
          "internalType": "address",
          "name": "",
          "type": "address"
        }
      ],
      "stateMutability": "view",
      "type": "function"
    },
    {
      "inputs": [
        {
          "internalType": "uint256",
          "name": "requestId",
          "type": "uint256"
        },
        {
          "internalType": "uint256[]",
          "name": "randomWords",
          "type": "uint256[]"
        }
      ],
      "name": "rawFulfillRandomWords",
      "outputs": [],
      "stateMutability": "nonpayable",
      "type": "function"
    },
    {
      "inputs": [],
      "name": "roll",
      "outputs": [
        {
          "internalType": "uint256",
          "name": "requestId",
          "type": "uint256"
        }
      ],
      "stateMutability": "nonpayable",
      "type": "function"
    },
    {
      "inputs": [],
      "name": "winner",
      "outputs": [
        {
          "internalType": "address",
          "name": "",
          "type": "address"
        }
      ],
      "stateMutability": "view",
      "type": "function"
    },
    {
      "inputs": [],
      "name": "winnerIndex",
      "outputs": [
        {
          "internalType": "uint256",
          "name": "",
          "type": "uint256"
        }
      ],
      "stateMutability": "view",
      "type": "function"
    }
  ],
  "bytecode": "0x60a0604052738103b0a8a00be2ddc778e6e7eaa21791cd364625600260006101000a81548173ffffffffffffffffffffffffffffffffffffffff021916908373ffffffffffffffffffffffffffffffffffffffff1602179055507f474e34a077df58807dbe9c96d3c009b23b3c6d0cce433e59bbf5b34f823bc56c60001b600355619c40600460006101000a81548163ffffffff021916908363ffffffff16021790555060036004806101000a81548161ffff021916908361ffff1602179055506001600460066101000a81548163ffffffff021916908363ffffffff160217905550348015620000ef57600080fd5b50604051620019ba380380620019ba8339818101604052810190620001159190620002d0565b600260009054906101000a900473ffffffffffffffffffffffffffffffffffffffff168073ffffffffffffffffffffffffffffffffffffffff1660808173ffffffffffffffffffffffffffffffffffffffff168152505050600260009054906101000a900473ffffffffffffffffffffffffffffffffffffffff16600160006101000a81548173ffffffffffffffffffffffffffffffffffffffff021916908373ffffffffffffffffffffffffffffffffffffffff160217905550336004600a6101000a81548173ffffffffffffffffffffffffffffffffffffffff021916908373ffffffffffffffffffffffffffffffffffffffff16021790555080600160146101000a81548167ffffffffffffffff021916908367ffffffffffffffff1602179055506202a300426200024b91906200033b565b6007819055506000600860156101000a81548160ff021916908360028111156200027a576200027962000376565b5b021790555050620003a5565b600080fd5b600067ffffffffffffffff82169050919050565b620002aa816200028b565b8114620002b657600080fd5b50565b600081519050620002ca816200029f565b92915050565b600060208284031215620002e957620002e862000286565b5b6000620002f984828501620002b9565b91505092915050565b6000819050919050565b7f4e487b7100000000000000000000000000000000000000000000000000000000600052601160045260246000fd5b6000620003488262000302565b9150620003558362000302565b925082820190508082111562000370576200036f6200030c565b5b92915050565b7f4e487b7100000000000000000000000000000000000000000000000000000000600052602160045260246000fd5b6080516115f2620003c860003960008181610303015261035701526115f26000f3fe6080604052600436106100c25760003560e01c8063544736e61161007f5780638f00cbfa116100595780638f00cbfa14610246578063a5f8cdbb14610271578063cd5e3c5d1461028d578063dfbf53ae146102b8576100c2565b8063544736e6146101c55780635aa68ac0146101f05780638da5cb5b1461021b576100c2565b80630c3f6acf146100c75780631a95f15f146100f25780631fe543e31461011d5780633197cbb61461014657806335c1d349146101715780634e71d92d146101ae575b600080fd5b3480156100d357600080fd5b506100dc6102e3565b6040516100e99190610c4d565b60405180910390f35b3480156100fe57600080fd5b506101076102f6565b6040516101149190610c81565b60405180910390f35b34801561012957600080fd5b50610144600480360381019061013f9190610e35565b610301565b005b34801561015257600080fd5b5061015b6103c1565b6040516101689190610c81565b60405180910390f35b34801561017d57600080fd5b5061019860048036038101906101939190610e91565b6103c7565b6040516101a59190610eff565b60405180910390f35b3480156101ba57600080fd5b506101c3610406565b005b3480156101d157600080fd5b506101da610567565b6040516101e79190610f35565b60405180910390f35b3480156101fc57600080fd5b5061020561057a565b6040516102129190610c81565b60405180910390f35b34801561022757600080fd5b50610230610587565b60405161023d9190610eff565b60405180910390f35b34801561025257600080fd5b5061025b6105ad565b6040516102689190610c81565b60405180910390f35b61028b60048036038101906102869190610f7c565b6105b3565b005b34801561029957600080fd5b506102a261078b565b6040516102af9190610c81565b60405180910390f35b3480156102c457600080fd5b506102cd610a40565b6040516102da9190610eff565b60405180910390f35b600860159054906101000a900460ff1681565b66038d7ea4c6800081565b7f000000000000000000000000000000000000000000000000000000000000000073ffffffffffffffffffffffffffffffffffffffff163373ffffffffffffffffffffffffffffffffffffffff16146103b357337f00000000000000000000000000000000000000000000000000000000000000006040517f1cf993f40000000000000000000000000000000000000000000000000000000081526004016103aa929190610fa9565b60405180910390fd5b6103bd8282610a66565b5050565b60075481565b600581815481106103d757600080fd5b906000526020600020016000915054906101000a900473ffffffffffffffffffffffffffffffffffffffff1681565b600860009054906101000a900473ffffffffffffffffffffffffffffffffffffffff1673ffffffffffffffffffffffffffffffffffffffff163373ffffffffffffffffffffffffffffffffffffffff1614610496576040517f08c379a000000000000000000000000000000000000000000000000000000000815260040161048d9061102f565b60405180910390fd5b6000600860009054906101000a900473ffffffffffffffffffffffffffffffffffffffff1673ffffffffffffffffffffffffffffffffffffffff16476040516104de90611080565b60006040518083038185875af1925050503d806000811461051b576040519150601f19603f3d011682016040523d82523d6000602084013e610520565b606091505b5050905080610564576040517f08c379a000000000000000000000000000000000000000000000000000000000815260040161055b906110e1565b60405180910390fd5b50565b600860149054906101000a900460ff1681565b6000600580549050905090565b6004600a9054906101000a900473ffffffffffffffffffffffffffffffffffffffff1681565b60005481565b600660008273ffffffffffffffffffffffffffffffffffffffff1673ffffffffffffffffffffffffffffffffffffffff16815260200190815260200160002060009054906101000a900460ff1615610640576040517f08c379a00000000000000000000000000000000000000000000000000000000081526004016106379061114d565b60405180910390fd5b6007544210610684576040517f08c379a000000000000000000000000000000000000000000000000000000000815260040161067b906111b9565b60405180910390fd5b66038d7ea4c6800034146106cd576040517f08c379a00000000000000000000000000000000000000000000000000000000081526004016106c490611225565b60405180910390fd5b6001600660008373ffffffffffffffffffffffffffffffffffffffff1673ffffffffffffffffffffffffffffffffffffffff16815260200190815260200160002060006101000a81548160ff0219169083151502179055506005819080600181540180825580915050600190039060005260206000200160009091909190916101000a81548173ffffffffffffffffffffffffffffffffffffffff021916908373ffffffffffffffffffffffffffffffffffffffff16021790555050565b60006004600a9054906101000a900473ffffffffffffffffffffffffffffffffffffffff1673ffffffffffffffffffffffffffffffffffffffff163373ffffffffffffffffffffffffffffffffffffffff16146107e757600080fd5b600754421161082b576040517f08c379a000000000000000000000000000000000000000000000000000000000815260040161082290611291565b60405180910390fd5b600060058054905011610873576040517f08c379a000000000000000000000000000000000000000000000000000000000815260040161086a906112fd565b60405180910390fd5b6000600281111561088757610886610bd6565b5b600860159054906101000a900460ff1660028111156108a9576108a8610bd6565b5b146108e9576040517f08c379a00000000000000000000000000000000000000000000000000000000081526004016108e090611369565b60405180910390fd5b600160009054906101000a900473ffffffffffffffffffffffffffffffffffffffff1673ffffffffffffffffffffffffffffffffffffffff16635d3b1d30600354600160149054906101000a900467ffffffffffffffff1660048054906101000a900461ffff16600460009054906101000a900463ffffffff16600460069054906101000a900463ffffffff166040518663ffffffff1660e01b8152600401610996959493929190611401565b6020604051808303816000875af11580156109b5573d6000803e3d6000fd5b505050506040513d601f19601f820116820180604052508101906109d99190611469565b90506001600860156101000a81548160ff02191690836002811115610a0157610a00610bd6565b5b02179055507f5d7d0431c4991fcc9f63f03ad0ead4128b866a8ed115a818b6d87a3afedb726481604051610a359190610c81565b60405180910390a190565b600860009054906101000a900473ffffffffffffffffffffffffffffffffffffffff1681565b60006001600580549050610a7a91906114c5565b905060006001600083610a8d91906114c5565b610a9791906114f9565b83600081518110610aab57610aaa61152d565b5b6020026020010151610abd919061158b565b610ac791906114f9565b600081905550600560005481548110610ae357610ae261152d565b5b9060005260206000200160009054906101000a900473ffffffffffffffffffffffffffffffffffffffff16600860006101000a81548173ffffffffffffffffffffffffffffffffffffffff021916908373ffffffffffffffffffffffffffffffffffffffff1602179055506002600860156101000a81548160ff02191690836002811115610b7457610b73610bd6565b5b02179055507eab21bd2dd66f95850ddbc36b760f3b78ab00babc79dcd498670fe06b20485e600860009054906101000a900473ffffffffffffffffffffffffffffffffffffffff16604051610bc99190610eff565b60405180910390a1505050565b7f4e487b7100000000000000000000000000000000000000000000000000000000600052602160045260246000fd5b60038110610c1657610c15610bd6565b5b50565b6000819050610c2782610c05565b919050565b6000610c3782610c19565b9050919050565b610c4781610c2c565b82525050565b6000602082019050610c626000830184610c3e565b92915050565b6000819050919050565b610c7b81610c68565b82525050565b6000602082019050610c966000830184610c72565b92915050565b6000604051905090565b600080fd5b600080fd5b610cb981610c68565b8114610cc457600080fd5b50565b600081359050610cd681610cb0565b92915050565b600080fd5b6000601f19601f8301169050919050565b7f4e487b7100000000000000000000000000000000000000000000000000000000600052604160045260246000fd5b610d2a82610ce1565b810181811067ffffffffffffffff82111715610d4957610d48610cf2565b5b80604052505050565b6000610d5c610c9c565b9050610d688282610d21565b919050565b600067ffffffffffffffff821115610d8857610d87610cf2565b5b602082029050602081019050919050565b600080fd5b6000610db1610dac84610d6d565b610d52565b90508083825260208201905060208402830185811115610dd457610dd3610d99565b5b835b81811015610dfd5780610de98882610cc7565b845260208401935050602081019050610dd6565b5050509392505050565b600082601f830112610e1c57610e1b610cdc565b5b8135610e2c848260208601610d9e565b91505092915050565b60008060408385031215610e4c57610e4b610ca6565b5b6000610e5a85828601610cc7565b925050602083013567ffffffffffffffff811115610e7b57610e7a610cab565b5b610e8785828601610e07565b9150509250929050565b600060208284031215610ea757610ea6610ca6565b5b6000610eb584828501610cc7565b91505092915050565b600073ffffffffffffffffffffffffffffffffffffffff82169050919050565b6000610ee982610ebe565b9050919050565b610ef981610ede565b82525050565b6000602082019050610f146000830184610ef0565b92915050565b60008115159050919050565b610f2f81610f1a565b82525050565b6000602082019050610f4a6000830184610f26565b92915050565b610f5981610ede565b8114610f6457600080fd5b50565b600081359050610f7681610f50565b92915050565b600060208284031215610f9257610f91610ca6565b5b6000610fa084828501610f67565b91505092915050565b6000604082019050610fbe6000830185610ef0565b610fcb6020830184610ef0565b9392505050565b600082825260208201905092915050565b7f596f7520617265206e6f742077696e6e65720000000000000000000000000000600082015250565b6000611019601283610fd2565b915061102482610fe3565b602082019050919050565b600060208201905081810360008301526110488161100c565b9050919050565b600081905092915050565b50565b600061106a60008361104f565b91506110758261105a565b600082019050919050565b600061108b8261105d565b9150819050919050565b7f5472616e73666572206661696c65640000000000000000000000000000000000600082015250565b60006110cb600f83610fd2565b91506110d682611095565b602082019050919050565b600060208201905081810360008301526110fa816110be565b9050919050565b7f416c7265616479207061727469636970616e7400000000000000000000000000600082015250565b6000611137601383610fd2565b915061114282611101565b602082019050919050565b600060208201905081810360008301526111668161112a565b9050919050565b7f4c6f746572792069732066696e69736865640000000000000000000000000000600082015250565b60006111a3601283610fd2565b91506111ae8261116d565b602082019050919050565b600060208201905081810360008301526111d281611196565b9050919050565b7f496e76616c696420707269636500000000000000000000000000000000000000600082015250565b600061120f600d83610fd2565b915061121a826111d9565b602082019050919050565b6000602082019050818103600083015261123e81611202565b9050919050565b7f4c6f74657279206973206e6f742066696e697368656400000000000000000000600082015250565b600061127b601683610fd2565b915061128682611245565b602082019050919050565b600060208201905081810360008301526112aa8161126e565b9050919050565b7f4e6f207061727469636970616e74730000000000000000000000000000000000600082015250565b60006112e7600f83610fd2565b91506112f2826112b1565b602082019050919050565b60006020820190508181036000830152611316816112da565b9050919050565b7f4c6f746572792069732073746172746564000000000000000000000000000000600082015250565b6000611353601183610fd2565b915061135e8261131d565b602082019050919050565b6000602082019050818103600083015261138281611346565b9050919050565b6000819050919050565b61139c81611389565b82525050565b600067ffffffffffffffff82169050919050565b6113bf816113a2565b82525050565b600061ffff82169050919050565b6113dc816113c5565b82525050565b600063ffffffff82169050919050565b6113fb816113e2565b82525050565b600060a0820190506114166000830188611393565b61142360208301876113b6565b61143060408301866113d3565b61143d60608301856113f2565b61144a60808301846113f2565b9695505050505050565b60008151905061146381610cb0565b92915050565b60006020828403121561147f5761147e610ca6565b5b600061148d84828501611454565b91505092915050565b7f4e487b7100000000000000000000000000000000000000000000000000000000600052601160045260246000fd5b60006114d082610c68565b91506114db83610c68565b92508282039050818111156114f3576114f2611496565b5b92915050565b600061150482610c68565b915061150f83610c68565b925082820190508082111561152757611526611496565b5b92915050565b7f4e487b7100000000000000000000000000000000000000000000000000000000600052603260045260246000fd5b7f4e487b7100000000000000000000000000000000000000000000000000000000600052601260045260246000fd5b600061159682610c68565b91506115a183610c68565b9250826115b1576115b061155c565b5b82820690509291505056fea2646970667358221220d47f0fcbcac8343bcdfd64f62c252bedae5e03d31a126205380683fc02d5ea6264736f6c63430008130033",
  "linkReferences": {},
  "deployedLinkReferences": {}
}