{
  "_format": "hh-sol-artifact-1",
  "contractName": "DLottery",
  "sourceName": "contracts/DLottery.sol",
  "abi": [
    {
      "inputs": [
        {
          "internalType": "uint64",
          "name": "_subscriptionId",
          "type": "uint64"
        }
      ],
      "stateMutability": "nonpayable",
      "type": "constructor"
    },
    {
      "inputs": [],
      "name": "AlreadyParticipant",
      "type": "error"
    },
    {
      "inputs": [],
      "name": "InvalidPrice",
      "type": "error"
    },
    {
      "inputs": [],
      "name": "LotteryIsFinished",
      "type": "error"
    },
    {
      "inputs": [],
      "name": "LotteryIsNotFinished",
      "type": "error"
    },
    {
      "inputs": [],
      "name": "LotteryIsStarted",
      "type": "error"
    },
    {
      "inputs": [],
      "name": "NoParticipants",
      "type": "error"
    },
    {
      "inputs": [
        {
          "internalType": "address",
          "name": "have",
          "type": "address"
        },
        {
          "internalType": "address",
          "name": "want",
          "type": "address"
        }
      ],
      "name": "OnlyCoordinatorCanFulfill",
      "type": "error"
    },
    {
      "inputs": [],
      "name": "TransferFailed",
      "type": "error"
    },
    {
      "inputs": [],
      "name": "YouAreNotWinner",
      "type": "error"
    },
    {
      "anonymous": false,
      "inputs": [
        {
          "indexed": false,
          "internalType": "address",
          "name": "participant",
          "type": "address"
        }
      ],
      "name": "ParticipantAdded",
      "type": "event"
    },
    {
      "anonymous": false,
      "inputs": [
        {
          "indexed": false,
          "internalType": "uint256",
          "name": "requestId",
          "type": "uint256"
        }
      ],
      "name": "RequestedRandomness",
      "type": "event"
    },
    {
      "anonymous": false,
      "inputs": [
        {
          "indexed": false,
          "internalType": "uint256",
          "name": "requestId",
          "type": "uint256"
        },
        {
          "indexed": false,
          "internalType": "address",
          "name": "winner",
          "type": "address"
        }
      ],
      "name": "RequestedRandomnessFulfilled",
      "type": "event"
    },
    {
      "inputs": [],
      "name": "DURATION_TIME",
      "outputs": [
        {
          "internalType": "uint256",
          "name": "",
          "type": "uint256"
        }
      ],
      "stateMutability": "view",
      "type": "function"
    },
    {
      "inputs": [],
      "name": "TICKET_PRICE",
      "outputs": [
        {
          "internalType": "uint256",
          "name": "",
          "type": "uint256"
        }
      ],
      "stateMutability": "view",
      "type": "function"
    },
    {
      "inputs": [
        {
          "internalType": "address",
          "name": "newParticipant",
          "type": "address"
        }
      ],
      "name": "buyTicket",
      "outputs": [],
      "stateMutability": "payable",
      "type": "function"
    },
    {
      "inputs": [],
      "name": "currentState",
      "outputs": [
        {
          "internalType": "enum DLottery.State",
          "name": "",
          "type": "uint8"
        }
      ],
      "stateMutability": "view",
      "type": "function"
    },
    {
      "inputs": [],
      "name": "endTime",
      "outputs": [
        {
          "internalType": "uint256",
          "name": "",
          "type": "uint256"
        }
      ],
      "stateMutability": "view",
      "type": "function"
    },
    {
      "inputs": [],
      "name": "getParticipants",
      "outputs": [
        {
          "internalType": "uint256",
          "name": "",
          "type": "uint256"
        }
      ],
      "stateMutability": "view",
      "type": "function"
    },
    {
      "inputs": [],
      "name": "getWinner",
      "outputs": [
        {
          "internalType": "address",
          "name": "",
          "type": "address"
        }
      ],
      "stateMutability": "view",
      "type": "function"
    },
    {
      "inputs": [],
      "name": "owner",
      "outputs": [
        {
          "internalType": "address",
          "name": "",
          "type": "address"
        }
      ],
      "stateMutability": "view",
      "type": "function"
    },
    {
      "inputs": [
        {
          "internalType": "uint256",
          "name": "",
          "type": "uint256"
        }
      ],
      "name": "participants",
      "outputs": [
        {
          "internalType": "address",
          "name": "",
          "type": "address"
        }
      ],
      "stateMutability": "view",
      "type": "function"
    },
    {
      "inputs": [],
      "name": "randomIndex",
      "outputs": [
        {
          "internalType": "uint256",
          "name": "",
          "type": "uint256"
        }
      ],
      "stateMutability": "view",
      "type": "function"
    },
    {
      "inputs": [
        {
          "internalType": "uint256",
          "name": "requestId",
          "type": "uint256"
        },
        {
          "internalType": "uint256[]",
          "name": "randomWords",
          "type": "uint256[]"
        }
      ],
      "name": "rawFulfillRandomWords",
      "outputs": [],
      "stateMutability": "nonpayable",
      "type": "function"
    },
    {
      "inputs": [],
      "name": "restart",
      "outputs": [],
      "stateMutability": "nonpayable",
      "type": "function"
    },
    {
      "inputs": [],
      "name": "start",
      "outputs": [
        {
          "internalType": "uint256",
          "name": "requestId",
          "type": "uint256"
        }
      ],
      "stateMutability": "nonpayable",
      "type": "function"
    }
  ],
  "bytecode": "0x60a06040523480156200001157600080fd5b5060405162001690380380620016908339818101604052810190620000379190620001f1565b600160009054906101000a900473ffffffffffffffffffffffffffffffffffffffff168073ffffffffffffffffffffffffffffffffffffffff1660808173ffffffffffffffffffffffffffffffffffffffff16815250505080600060146101000a81548167ffffffffffffffff021916908367ffffffffffffffff160217905550600160009054906101000a900473ffffffffffffffffffffffffffffffffffffffff166000806101000a81548173ffffffffffffffffffffffffffffffffffffffff021916908373ffffffffffffffffffffffffffffffffffffffff160217905550336003600a6101000a81548173ffffffffffffffffffffffffffffffffffffffff021916908373ffffffffffffffffffffffffffffffffffffffff16021790555062015180426200016c91906200025c565b6004819055506000600860006101000a81548160ff021916908360028111156200019b576200019a62000297565b5b021790555050620002c6565b600080fd5b600067ffffffffffffffff82169050919050565b620001cb81620001ac565b8114620001d757600080fd5b50565b600081519050620001eb81620001c0565b92915050565b6000602082840312156200020a5762000209620001a7565b5b60006200021a84828501620001da565b91505092915050565b6000819050919050565b7f4e487b7100000000000000000000000000000000000000000000000000000000600052601160045260246000fd5b6000620002698262000223565b9150620002768362000223565b92508282019050808211156200029157620002906200022d565b5b92915050565b7f4e487b7100000000000000000000000000000000000000000000000000000000600052602160045260246000fd5b6080516113a7620002e9600039600081816104a901526104fd01526113a76000f3fe6080604052600436106100c25760003560e01c80635aa68ac01161007f57806398ef76331161005957806398ef763314610246578063a5f8cdbb14610271578063be9a65551461028d578063dc2337e2146102b8576100c2565b80635aa68ac0146101c55780638da5cb5b146101f05780638e7ea5b21461021b576100c2565b80630c3f6acf146100c75780631a95f15f146100f25780631ef3755d1461011d5780631fe543e3146101345780633197cbb61461015d57806335c1d34914610188575b600080fd5b3480156100d357600080fd5b506100dc6102e3565b6040516100e99190610dc6565b60405180910390f35b3480156100fe57600080fd5b506101076102f6565b6040516101149190610dfa565b60405180910390f35b34801561012957600080fd5b50610132610300565b005b34801561014057600080fd5b5061015b60048036038101906101569190610fae565b6104a7565b005b34801561016957600080fd5b50610172610567565b60405161017f9190610dfa565b60405180910390f35b34801561019457600080fd5b506101af60048036038101906101aa919061100a565b61056d565b6040516101bc9190611078565b60405180910390f35b3480156101d157600080fd5b506101da6105ac565b6040516101e79190610dfa565b60405180910390f35b3480156101fc57600080fd5b506102056105b9565b6040516102129190611078565b60405180910390f35b34801561022757600080fd5b506102306105df565b60405161023d9190611078565b60405180910390f35b34801561025257600080fd5b5061025b6106d2565b6040516102689190610dfa565b60405180910390f35b61028b600480360381019061028691906110bf565b6106d9565b005b34801561029957600080fd5b506102a26108fd565b6040516102af9190610dfa565b60405180910390f35b3480156102c457600080fd5b506102cd610b98565b6040516102da9190610dfa565b60405180910390f35b600860009054906101000a900460ff1681565b655af3107a400081565b6003600a9054906101000a900473ffffffffffffffffffffffffffffffffffffffff1673ffffffffffffffffffffffffffffffffffffffff163373ffffffffffffffffffffffffffffffffffffffff161461035a57600080fd5b60028081111561036d5761036c610d4f565b5b600860009054906101000a900460ff16600281111561038f5761038e610d4f565b5b146103c6576040517f4093df3600000000000000000000000000000000000000000000000000000000815260040160405180910390fd5b600060068054905003610405576040517f8b6a473000000000000000000000000000000000000000000000000000000000815260040160405180910390fd5b6000600860006101000a81548160ff0219169083600281111561042b5761042a610d4f565b5b0217905550600067ffffffffffffffff81111561044b5761044a610e6b565b5b6040519080825280602002602001820160405280156104795781602001602082028036833780820191505090505b506006908051906020019061048f929190610ca8565b50620151804261049f919061111b565b600481905550565b7f000000000000000000000000000000000000000000000000000000000000000073ffffffffffffffffffffffffffffffffffffffff163373ffffffffffffffffffffffffffffffffffffffff161461055957337f00000000000000000000000000000000000000000000000000000000000000006040517f1cf993f400000000000000000000000000000000000000000000000000000000815260040161055092919061114f565b60405180910390fd5b6105638282610b9e565b5050565b60045481565b6006818154811061057d57600080fd5b906000526020600020016000915054906101000a900473ffffffffffffffffffffffffffffffffffffffff1681565b6000600680549050905090565b6003600a9054906101000a900473ffffffffffffffffffffffffffffffffffffffff1681565b60006002808111156105f4576105f3610d4f565b5b600860009054906101000a900460ff16600281111561061657610615610d4f565b5b1461064d576040517f4093df3600000000000000000000000000000000000000000000000000000000815260040160405180910390fd5b60006006805490500361068c576040517f8b6a473000000000000000000000000000000000000000000000000000000000815260040160405180910390fd5b6006600554815481106106a2576106a1611178565b5b9060005260206000200160009054906101000a900473ffffffffffffffffffffffffffffffffffffffff16905090565b6201518081565b600760008273ffffffffffffffffffffffffffffffffffffffff1673ffffffffffffffffffffffffffffffffffffffff16815260200190815260200160002060009054906101000a900460ff161561075d576040517f89644bf100000000000000000000000000000000000000000000000000000000815260040160405180910390fd5b655af3107a400034101561079c576040517ebfc92100000000000000000000000000000000000000000000000000000000815260040160405180910390fd5b6002808111156107af576107ae610d4f565b5b600860009054906101000a900460ff1660028111156107d1576107d0610d4f565b5b03610808576040517fe4f1d0b900000000000000000000000000000000000000000000000000000000815260040160405180910390fd5b6001600760008373ffffffffffffffffffffffffffffffffffffffff1673ffffffffffffffffffffffffffffffffffffffff16815260200190815260200160002060006101000a81548160ff0219169083151502179055506006819080600181540180825580915050600190039060005260206000200160009091909190916101000a81548173ffffffffffffffffffffffffffffffffffffffff021916908373ffffffffffffffffffffffffffffffffffffffff1602179055507f31d3ac54da09405b02d1de0ee0de648de637fbdc111123be0d7fc31f2a544c0b816040516108f29190611078565b60405180910390a150565b60006003600a9054906101000a900473ffffffffffffffffffffffffffffffffffffffff1673ffffffffffffffffffffffffffffffffffffffff163373ffffffffffffffffffffffffffffffffffffffff161461095957600080fd5b600060068054905003610998576040517f8b6a473000000000000000000000000000000000000000000000000000000000815260040160405180910390fd5b600160028111156109ac576109ab610d4f565b5b600860009054906101000a900460ff1660028111156109ce576109cd610d4f565b5b03610a05576040517f8f6e616700000000000000000000000000000000000000000000000000000000815260040160405180910390fd5b600454421015610a41576040517f4093df3600000000000000000000000000000000000000000000000000000000815260040160405180910390fd5b60008054906101000a900473ffffffffffffffffffffffffffffffffffffffff1673ffffffffffffffffffffffffffffffffffffffff16635d3b1d30600254600060149054906101000a900467ffffffffffffffff16600360049054906101000a900461ffff16600360009054906101000a900463ffffffff16600360069054906101000a900463ffffffff166040518663ffffffff1660e01b8152600401610aee95949392919061121f565b6020604051808303816000875af1158015610b0d573d6000803e3d6000fd5b505050506040513d601f19601f82011682018060405250810190610b319190611287565b90506001600860006101000a81548160ff02191690836002811115610b5957610b58610d4f565b5b02179055507f5d7d0431c4991fcc9f63f03ad0ead4128b866a8ed115a818b6d87a3afedb726481604051610b8d9190610dfa565b60405180910390a190565b60055481565b6000600160006001600680549050610bb691906112b4565b610bc091906112b4565b610bca919061111b565b82600081518110610bde57610bdd611178565b5b6020026020010151610bf09190611317565b610bfa919061111b565b6005819055506002600860006101000a81548160ff02191690836002811115610c2657610c25610d4f565b5b02179055507f176ecfd3d23abd3399806de8f47e7e9418cad819da80d478f52bc37c982f299e82600660055481548110610c6357610c62611178565b5b9060005260206000200160009054906101000a900473ffffffffffffffffffffffffffffffffffffffff16604051610c9c929190611348565b60405180910390a15050565b828054828255906000526020600020908101928215610d21579160200282015b82811115610d205782518260006101000a81548173ffffffffffffffffffffffffffffffffffffffff021916908373ffffffffffffffffffffffffffffffffffffffff16021790555091602001919060010190610cc8565b5b509050610d2e9190610d32565b5090565b5b80821115610d4b576000816000905550600101610d33565b5090565b7f4e487b7100000000000000000000000000000000000000000000000000000000600052602160045260246000fd5b60038110610d8f57610d8e610d4f565b5b50565b6000819050610da082610d7e565b919050565b6000610db082610d92565b9050919050565b610dc081610da5565b82525050565b6000602082019050610ddb6000830184610db7565b92915050565b6000819050919050565b610df481610de1565b82525050565b6000602082019050610e0f6000830184610deb565b92915050565b6000604051905090565b600080fd5b600080fd5b610e3281610de1565b8114610e3d57600080fd5b50565b600081359050610e4f81610e29565b92915050565b600080fd5b6000601f19601f8301169050919050565b7f4e487b7100000000000000000000000000000000000000000000000000000000600052604160045260246000fd5b610ea382610e5a565b810181811067ffffffffffffffff82111715610ec257610ec1610e6b565b5b80604052505050565b6000610ed5610e15565b9050610ee18282610e9a565b919050565b600067ffffffffffffffff821115610f0157610f00610e6b565b5b602082029050602081019050919050565b600080fd5b6000610f2a610f2584610ee6565b610ecb565b90508083825260208201905060208402830185811115610f4d57610f4c610f12565b5b835b81811015610f765780610f628882610e40565b845260208401935050602081019050610f4f565b5050509392505050565b600082601f830112610f9557610f94610e55565b5b8135610fa5848260208601610f17565b91505092915050565b60008060408385031215610fc557610fc4610e1f565b5b6000610fd385828601610e40565b925050602083013567ffffffffffffffff811115610ff457610ff3610e24565b5b61100085828601610f80565b9150509250929050565b6000602082840312156110205761101f610e1f565b5b600061102e84828501610e40565b91505092915050565b600073ffffffffffffffffffffffffffffffffffffffff82169050919050565b600061106282611037565b9050919050565b61107281611057565b82525050565b600060208201905061108d6000830184611069565b92915050565b61109c81611057565b81146110a757600080fd5b50565b6000813590506110b981611093565b92915050565b6000602082840312156110d5576110d4610e1f565b5b60006110e3848285016110aa565b91505092915050565b7f4e487b7100000000000000000000000000000000000000000000000000000000600052601160045260246000fd5b600061112682610de1565b915061113183610de1565b9250828201905080821115611149576111486110ec565b5b92915050565b60006040820190506111646000830185611069565b6111716020830184611069565b9392505050565b7f4e487b7100000000000000000000000000000000000000000000000000000000600052603260045260246000fd5b6000819050919050565b6111ba816111a7565b82525050565b600067ffffffffffffffff82169050919050565b6111dd816111c0565b82525050565b600061ffff82169050919050565b6111fa816111e3565b82525050565b600063ffffffff82169050919050565b61121981611200565b82525050565b600060a08201905061123460008301886111b1565b61124160208301876111d4565b61124e60408301866111f1565b61125b6060830185611210565b6112686080830184611210565b9695505050505050565b60008151905061128181610e29565b92915050565b60006020828403121561129d5761129c610e1f565b5b60006112ab84828501611272565b91505092915050565b60006112bf82610de1565b91506112ca83610de1565b92508282039050818111156112e2576112e16110ec565b5b92915050565b7f4e487b7100000000000000000000000000000000000000000000000000000000600052601260045260246000fd5b600061132282610de1565b915061132d83610de1565b92508261133d5761133c6112e8565b5b828206905092915050565b600060408201905061135d6000830185610deb565b61136a6020830184611069565b939250505056fea264697066735822122004acb33301925ba9ba07d11b1bf2190fb1e79db1427bb8b56ce73dd21131a8b164736f6c63430008160033",
  "linkReferences": {},
  "deployedLinkReferences": {}
}